:100000000C941F010C943C010C9474060C943C015C
:100010000C943C010C943C010C943C010C943C016C
:100020000C943C010C943C010C944B070C94550728
:100030000C943C010C943C010C943C010C943C014C
:100040000C940C070C943C010C948B060C943C0112
:100050000C943C010C943C010C943C010C943C012C
:100060000C943C010C943C010D0318031E03240363
:100070002A0330033B0346035103570362036D0316
:1000800078037E0389039403B303B703BB03BF0361
:10009000C303C703CE03D503A20563066306630645
:1000A00063065C066306630663066306630663060F
:1000B0006306630663066306630663064306230658
:1000C00063066306630663066306630663066306E8
:1000D0006306630663066306A2056306630663069A
:1000E00063065C06630663066306630663066306CF
:1000F0006306630663066306630663064306230618
:100100006E616E00696E660000407A10F35A00A0BE
:10011000724E18090010A5D4E80000E876481700D0
:1001200000E40B54020000CA9A3B000000E1F50510
:10013000000080969800000040420F000000A0865A
:1001400001000000102700000000E803000000008C
:100150006400000000000A00000000000100000030
:1001600000002C76D888DC674F0823DFC1DFAE594A
:10017000E1B1B796E5E3E453C63AE651997696E8DD
:10018000E6C28426EB898C9B62ED407C6FFCEFBC61
:100190009C9F40F2BAA56FA5F490055A2AF75C938C
:1001A0006B6CF9676DC11BFCE0E40D47FEF520E6C2
:1001B000B500D0ED902E0300943577050080841EA5
:1001C000080000204E0A000000C80C333333330F00
:1001D000986E12831141EF8D2114893BE65516CF9D
:1001E000FEE6DB18D1844B381BF77C1D901DA4BBA9
:1001F000E424203284725E228100C9F124ECA1E55E
:100200003D274E414E494E495459494E46CDCCCCDE
:100210003D0AD7233C17B7D13877CC2B329595E6DA
:10022000241FB14F0A000020410000C84200401CBA
:100230004620BCBE4CCA1B0E5AAEC59D740011248C
:100240001FBECFEFD8E0DEBFCDBF11E0A0E0B1E030
:10025000EAEAF6E202C005900D92A038B107D9F79C
:1002600022E0A0E8B1E001C01D92AB31B207E1F796
:100270000E9401080C9453130C940000E0ECF0E091
:10028000908195FFFDCF8093C60080E090E00895B7
:10029000E0ECF0E080818823ECF78091C60090E0EC
:1002A0000895109269001DBA892B41F161307105E2
:1002B00089F01CF4672B41F01EC06230710581F09B
:1002C0006330710599F017C0E9E6F0E080818C7F1A
:1002D000808311C0E9E6F0E08081816080830BC0FB
:1002E000E9E6F0E080818260808305C0E9E6F0E025
:1002F00080818360808381E08DBB5298452B41F1E2
:100300002130310589F01CF4232B41F01EC022302E
:10031000310581F02330310599F017C0E9E6F0E0AE
:100320008081837F808311C0E9E6F0E08081846072
:1003300080830BC0E9E6F0E080818860808305C09F
:10034000E9E6F0E080818C60808382E08DBB539889
:100350000895CF92DF92EF92FF9220E030E04AE7DB
:1003600054E40E940F0A6B017C0120E030E0A901F7
:100370000E940A0A811104C01092AB011092AA01D6
:100380002DEB37E346E85BE3C701B6010E940A0A9A
:1003900018163CF081E090E09093AB018093AA01A5
:1003A00043C02DEB37E346E05DE3C701B6010E9491
:1003B0000A0A18163CF088E090E09093AB01809315
:1003C000AA0132C02DEB37E346E85EE3C701B60170
:1003D0000E940A0A18163CF080E490E09093AB016A
:1003E0008093AA0121C02DEB37E346E85FE3C70104
:1003F000B6010E940A0A18163CF080E091E0909342
:10040000AB018093AA0110C02DEB37E346E850E41E
:10041000C701B6010E940A0A181634F080E094E081
:100420009093AB018093AA01E1E8F0E08081887F9E
:1004300080838091AA019091AB0188309105F1F001
:1004400028F4009779F0019799F02FC0811521E0E9
:10045000920701F1811524E0920711F18034910592
:1004600021F512C0E1E8F0E08081887F80831DC023
:10047000E1E8F0E080818160808317C0E1E8F0E08E
:1004800080818260808311C0E1E8F0E08081836038
:1004900080830BC0E1E8F0E080818460808305C048
:1004A000E1E8F0E0808185608083FF90EF90DF904D
:1004B000CF900895CF92DF92EF92FF9220E030E04C
:1004C0004AE754E40E940F0A6B017C012DEB37E3ED
:1004D00046E857E30E940A0A18163CF081E090E0D3
:1004E0009093A9018093A8014AC02DEB37E346E021
:1004F00059E3C701B6010E940A0A18163CF088E0C9
:1005000090E09093A9018093A80139C02DEB37E3C7
:1005100046E85AE3C701B6010E940A0A18163CF0E1
:1005200080E490E09093A9018093A80128C02DEB6E
:1005300037E346E85BE3C701B6010E940A0A1816D2
:100540003CF080E091E09093A9018093A80117C04E
:100550002DEB37E346E85CE3C701B6010E940A0AC7
:1005600018163CF080E094E09093A9018093A801D4
:1005700006C080E094E09093A9018093A80185B51E
:10058000887F85BD8091A8019091A901883091054F
:10059000D1F028F4009779F0019789F023C08115F4
:1005A00021E09207C1F0811524E09207C1F0803468
:1005B0009105C1F40CC085B5887F85BD13C085B594
:1005C000816085BD0FC085B5826085BD0BC085B5D6
:1005D000836085BD07C085B5846085BD03C085B5D2
:1005E000856085BDFF90EF90DF90CF900895E82F54
:1005F000A0E8B0E08C918C7F8C93A1E8B0E08C9166
:10060000877E8C938E2F90E08031910508F096C004
:10061000FC01EC5CFF4F0C94920FE0E8F0E080816D
:100620008C7F8083E1E8F0E08081877E808308957D
:10063000E0E8F0E08081816080830895E0E8F0E008
:100640008081826080830895E0E8F0E080818360AB
:1006500080830895E1E8F0E08081886080830895D8
:10066000E0E8F0E0808181608083E1E8F0E0808173
:10067000886080830895E0E8F0E080818260808374
:10068000E1E8F0E08081886080830895E0E8F0E0B0
:10069000808183608083E1E8F0E0808188608083EE
:1006A0000895E1E8F0E08081806180830895E0E8CA
:1006B000F0E0808181608083E1E8F0E0808180610A
:1006C00080830895E0E8F0E0808182608083E1E843
:1006D000F0E08081806180830895E0E8F0E080812F
:1006E00083608083E1E8F0E0808180618083089509
:1006F000E1E8F0E08081886180830895E0E8F0E03F
:10070000808181608083E1E8F0E08081886180837E
:100710000895E0E8F0E0808182608083E1E8F0E025
:100720008081886180830895E0E8F0E080818360C3
:100730008083E1E8F0E08081886180830895E82F7C
:1007400084B58E7F84BD84B58D7F84BD85B5877F5C
:1007500085BD8E2F90E08830910568F5FC01EC5B3B
:10076000FF4F0C94920F85B5877F85BD089584B5A2
:10077000816084BD089584B5826084BD089584B588
:10078000836084BD089585B5886085BD089584B56E
:10079000816084BD85B5886085BD089584B582601B
:1007A00084BD85B5886085BD089584B5836084BDAA
:1007B00085B5886085BD0895CF93C62FE0E8F0E049
:1007C00090819F73908390819F7C9083813061F0B2
:1007D00028F0823079F0833099F018C0E0E8F0E03A
:1007E00080818F73808316C0E0E8F0E080818064B0
:1007F000808310C0E0E8F0E08081806880830AC0D8
:10080000E0E8F0E08081806C808304C08BE291E0BE
:100810000E943911C13061F028F0C23079F0C33044
:1008200099F018C0E0E8F0E080818F7C808316C0EA
:10083000E0E8F0E080818061808310C0E0E8F0E0D3
:100840008081806280830AC0E0E8F0E0808180637C
:10085000808304C08BE291E00E943911CF9108950A
:10086000882331F0B598EFE6F0E0808180628083E4
:10087000662331F0B198EFE6F0E0808182608083FA
:10088000442331F0B298EFE6F0E080818460808309
:10089000222331F0B098EFE6F0E080818160808320
:1008A0000895882331F0A998EEE6F0E08081826017
:1008B0008083662331F0AA98EEE6F0E080818460C0
:1008C0008083442331F0A898EEE6F0E080818160D7
:1008D000808308954F925F926F927F928F929F9242
:1008E000AF92BF92CF92DF92EF92FF92CF93DF93BE
:1008F00000D000D0CDB7DEB76B017C0129833A83ED
:100900004B835C8360E083E00E94DC038EE00E9406
:10091000F70220E040E061E081E00E943004C7017E
:10092000B6010E94A9012091AA013091AB0140E0DB
:1009300050E00F2E812CF4E29F2EF4EFAF2EB12C5D
:10094000F02DC501B4010E94730FCA01B9010E94C4
:10095000B20A2B013C0120E030E04AE754E4C70131
:10096000B6010E940F0A9B01AC01C301B2010E94B3
:10097000670B20E030E040E85FE30E949E090E94A0
:10098000810A709387006093860029813A814B81A8
:100990005C81C701B6010E94670B20E030E048ECA3
:1009A00052E40E940F0A20E030E04AE754E40E943B
:1009B0000F0A6B017C012091AA013091AB0140E04C
:1009C00050E0C501B4010E94730FCA01B9010E9431
:1009D000B20A9B01AC01C701B6010E94670B20E07F
:1009E00030E040E85FE30E949E090E94810A709314
:1009F0008900609388000F900F900F900F90DF9107
:100A0000CF91FF90EF90DF90CF90BF90AF909F90ED
:100A10008F907F906F905F904F9008950F931F93EA
:100A2000CF93DF938A01E9019B01AC012150310989
:100A30004109510960E472E48FE090E00E94510F97
:100A40003093C5002093C4001092C00088E18093C9
:100A5000C1008EE08093C200E3E1F2E08DE191E01D
:100A60009183808393838283012B51F0E0ECF0E04B
:100A700080818F7B8083E1ECF0E0808180688083DF
:100A8000CD2B51F0E0ECF0E080818F778083E1ECBA
:100A9000F0E0808180688083DF91CF911F910F917A
:100AA000089560919E0170919F01072E000C880BA4
:100AB000990B0E94B20A26EE3DE147EA5EE30E94EE
:100AC0000F0A20E030E040E05FE30E94670B20E087
:100AD00030E040E752E40E94670B6093A4017093FA
:100AE000A5018093A6019093A7011092A3011092F3
:100AF000A20110929F0110929E018091A0019091FD
:100B0000A10101969093A1018093A00108950F93F4
:100B10001F93CF93DF938B01DC012C912A3309F0D3
:100B2000D8C01196EC9111974E2F50E0FA01E45481
:100B3000F109E433F10508F0C6C0EC01E45BFF4FB6
:100B40000C94920F81E480931C0180919C01909100
:100B50009D019923E4F0FD0120E030E080818C329A
:100B600061F41082A0919C01B0919D01A00FB11F72
:100B70001C9230939B0120939A012F5F3F4F8091ED
:100B80009C0190919D013196821793073CF7CE010D
:100B900002960E94CF0F6093180170931901809301
:100BA0001A0190931B0180919A0190919B010196EB
:100BB000800F911F0E94CF0F60931001709311015D
:100BC00080931201909313014091100150911101F3
:100BD0006091120170911301809118019091190197
:100BE000A0911A01B0911B017F936F935F934F9374
:100BF000BF93AF939F938F9381E491E09F938F93E3
:100C00000E94231120911001309111014091120195
:100C100050911301609118017091190180911A018E
:100C200090911B010E946A048FEF9FEF90939D01AA
:100C300080939C01EDB7FEB73A960FB6F894FEBFCD
:100C40000FBEEDBF46C083E480931C018FE491E0AA
:100C50000E943911CE0102960E94D30FBC01990F58
:100C6000880B990B0E94B20A6093140170931501CE
:100C700080931601909317018FEF9FEF90939D0142
:100C800080939C0126C08091A4019091A501A09120
:100C9000A601B091A701BF93AF939F938F938CE56B
:100CA00091E09F938F930E9423110F900F900F90CC
:100CB0000F900F900F900DC081E090E09093950100
:100CC0008093940106C08FEF9FEF90939D018093D6
:100CD0009C018FEF9FEF90939D0180939C01DF918A
:100CE000CF911F910F9108951F920F920FB60F92FF
:100CF00011248F939F9380919E0190919F01019663
:100D000090939F0180939E019F918F910F900FBEB2
:100D10000F901F9018951F920F920FB60F921124EB
:100D20002F933F934F935F936F937F938F939F93F3
:100D3000AF93BF93CF93DF93EF93FF93C0919C0149
:100D4000D0919D018DE191E00E944801C055DE4F98
:100D50008883E0919C01F0919D01E055FE4F8081D8
:100D6000883049F480919C0190919D010197909366
:100D70009D0180939C01E0919C01F0919D01E055C3
:100D8000FE4F80818D3039F480919C0190919D01BE
:100D900099235CF41FC0E0919C01F0919D01E05506
:100DA000FE4F80818A30E1F4EFCFC7EDD1E0A5EFAF
:100DB000B1E080E090E0FC01E055FE4F20812993F6
:100DC00020812D93019620919C0130919D0128173F
:100DD00039078CF765EF71E087ED91E00E94870598
:100DE00080919C0190919D01019690939D0180932B
:100DF0009C01FF91EF91DF91CF91BF91AF919F91B6
:100E00008F917F916F915F914F913F912F910F90B3
:100E10000FBE0F901F9018951F920F920FB60F9252
:100E200011242F933F934F935F936F937F938F93EF
:100E30009F93AF93BF93EF93FF9381E090E09093E4
:100E40009901809398018091A2019091A30101964C
:100E50009093A3018093A2018091A2019091A3019C
:100E6000449741F40E94510581E090E090939701EE
:100E700080939601FF91EF91BF91AF919F918F91D8
:100E80007F916F915F914F913F912F910F900FBE86
:100E90000F901F9018951F920F920FB60F9211246A
:100EA0000F900FBE0F901F9018951F920F920FB6C4
:100EB0000F9211240F900FBE0F901F901895DC0118
:100EC000EEE7F0E0908116968C911697892B80833F
:100ED000ECE7F0E0208111969C91119730E4939F0C
:100EE000C0011124822B8083E4E6F0E080818E7FB4
:100EF0008083EAE7F0E0108280818068808320812F
:100F000014969C91149730E2939FC0011124822B78
:100F10008083908112968C911297892B8083908187
:100F200013968C91880F880F880F892B80830895E2
:100F3000E0EDF1E087E082831382148281E0818317
:100F40008FE38683CF010E945F070895ECE7F0E00E
:100F500090818F70907F892B8083EAE7F0E0808119
:100F60008E7F8083808180648083808184FFFDCF39
:100F700080917800909179000895FC0160817181E1
:100F800082819381680F791F84819581680F791F11
:100F900086819781680F791F80859185680F791FF9
:100FA00082859385680F791F84859585680F791FE1
:100FB00086859785680F791F80899189680F791FC9
:100FC00082899389680F791F80E090E00E94B00ABF
:100FD00020E030E040E251E40E940F0A20E030E0DF
:100FE00040EA50E40E94670B20E030EC4FE754E405
:100FF0000E940F0A20E030E040E251E40E94670BBB
:101000000895CF93DF93CDB7DEB768970FB6F89406
:10101000DEBF0FBECDBF5398249A219A2C9A299AED
:1010200020E030E041E050E060E875E280E090E0F0
:101030000E940E050E949807FE01319684E1DF01AF
:101040001D928A95E9F722E030E041E050E060E04F
:1010500070E080E090E00E94510141E060E080E0BB
:101060000E94510480E00E949F0360E070E08AE7E4
:1010700094E40E945A02789400E010E00F2EFFE6FC
:101080002F2EF1E03F2EF02D0F2E412C512CF6EC9F
:101090006F2EF2E47F2EF02D8091980190919901AE
:1010A000892B01F180E00E94A607F801EE0FFF1FD7
:1010B00021E030E02C0F3D1FE20FF31F918380836E
:1010C0000930110549F4C9010E94BD076D8B7E8B63
:1010D0008F8B988F0FEF1FEF0F5F1F4F10929901AB
:1010E0001092980180919401909195010197B1F42B
:1010F0008D899E89AF89B88DBF93AF939F938F934E
:101100003F922F920E942311109295011092940108
:101110000F900F900F900F900F900F9080911C01E7
:10112000833409F0B9CF8091960190919701892B72
:1011300009F4B2CF609114017091150180911601EC
:10114000909117012091A4013091A5014091A60131
:101150005091A7010E949D096093900170939101A5
:10116000809392019093930160918C0170918D0115
:1011700080918E0190918F01209190013091910189
:1011800040919201509193010E949E0960938C01BD
:1011900070938D0180938E0190938F0160919001E7
:1011A00070919101809192019091930180908C01B6
:1011B00090908D01A0908E01B0908F0120910C0134
:1011C00030910D0140910E0150910F010E94670B6B
:1011D0006B017C01209108013091090140910A01C5
:1011E00050910B01C501B4010E94670B9B01AC013A
:1011F000C701B6010E949E0960938801709389011E
:1012000080938A0190938B0160918801709189018C
:1012100080918A0190918B01CD88DE88EF88F88CCF
:101220002091040130910501409106015091070180
:101230000E940F0AA70196010E949D0960938401F4
:10124000709385018093860190938701209100011E
:101250003091010140910201509103010E94670BFE
:101260006B017C0160938001709381018093820106
:10127000909383012091100130911101409112014E
:10128000509113010E949E0920E030E042EC52E4AC
:101290000E94620B88234CF0409210015092110181
:1012A000609212017092130135C0209110013091AB
:1012B00011014091120150911301C701B6010E9422
:1012C0009E0920E030E040E450E40E940A0A18162B
:1012D0006CF080E090E0A0E0B0E480931001909387
:1012E0001101A0931201B093130114C020911001B9
:1012F000309111014091120150911301C701B601C3
:101300000E949E0960931001709311018093120155
:10131000909313012091100130911101409112011D
:101320005091130160E070E080E89FE30E946A043E
:101330001092970110929601AFCE5058BB27AA2762
:101340000E94B5090C94280B0E941A0B38F00E94D9
:10135000210B20F039F49F3F19F426F40C94170B5D
:101360000EF4E095E7FB0C94110BE92F0E94390B6A
:1013700058F3BA17620773078407950720F079F4CA
:10138000A6F50C945B0B0EF4E0950B2EBA2FA02D56
:101390000B01B90190010C01CA01A0011124FF2722
:1013A000591B99F0593F50F4503E68F11A16F0401D
:1013B000A22F232F342F4427585FF3CF469537951C
:1013C0002795A795F0405395C9F77EF41F16BA0BE1
:1013D000620B730B840BBAF09150A1F0FF0FBB1F8F
:1013E000661F771F881FC2F70EC0BA0F621F731FD8
:1013F000841F48F4879577956795B795F7959E3F35
:1014000008F0B0CF9395880F08F09927EE0F9795C5
:10141000879508950E94ED0A08F481E008950E94DE
:10142000230A0C94280B0E94210B58F00E941A0BDF
:1014300040F029F45F3F29F00C94110B51110C94EA
:101440005C0B0C94170B0E94390B68F39923B1F3D2
:10145000552391F3951B550BBB27AA2762177307DA
:10146000840738F09F5F5F4F220F331F441FAA1F6E
:10147000A9F335D00E2E3AF0E0E832D0915050402A
:10148000E695001CCAF72BD0FE2F29D0660F771FD8
:10149000881FBB1F261737074807AB07B0E809F0BE
:1014A000BB0B802DBF01FF2793585F4F3AF09E3F43
:1014B000510578F00C94110B0C945C0B5F3FE4F336
:1014C000983ED4F3869577956795B795F7959F5F86
:1014D000C9F7880F911D9695879597F90895E1E0D2
:1014E000660F771F881FBB1F621773078407BA0731
:1014F00020F0621B730B840BBA0BEE1F88F7E0958C
:1015000008950E94410B88F09F5798F0B92F9927B2
:10151000B751B0F0E1F0660F771F881F991F1AF0DE
:10152000BA95C9F714C0B13091F00E945B0BB1E0DD
:1015300008950C945B0B672F782F8827B85F39F0DC
:10154000B93FCCF3869577956795B395D9F73EF477
:1015500090958095709561957F4F8F4F9F4F08951F
:10156000E89409C097FB3EF490958095709561953D
:101570007F4F8F4F9F4F9923A9F0F92F96E9BB27F3
:101580009395F695879577956795B795F111F8CF6F
:10159000FAF4BB0F11F460FF1BC06F5F7F4F8F4FDA
:1015A0009F4F16C0882311F096E911C0772321F0D0
:1015B0009EE8872F762F05C0662371F096E8862F68
:1015C00070E060E02AF09A95660F771F881FDAF7BF
:1015D000880F9695879597F90895990F0008550FEC
:1015E000AA0BE0E8FEEF16161706E807F907C0F0A9
:1015F00012161306E407F50798F0621B730B840BB1
:10160000950B39F40A2661F0232B242B252B21F48A
:1016100008950A2609F4A140A6958FEF811D811D2A
:10162000089597F99F6780E870E060E008959FEF64
:1016300080EC089500240A94161617061806090669
:10164000089500240A941216130614060506089538
:10165000092E0394000C11F4882352F0BB0F40F4C0
:10166000BF2B11F460FF04C06F5F7F4F8F4F9F4F00
:10167000089557FD9058440F551F59F05F3F71F082
:101680004795880F97FB991F61F09F3F79F08795E9
:101690000895121613061406551FF2CF4695F1DF72
:1016A00008C0161617061806991FF1CF8695710502
:1016B000610508940895E894BB2766277727CB0136
:1016C00097F908950E94ED0A08F48FEF08950E949B
:1016D0007A0B0C94280B0E941A0B38F00E94210BF5
:1016E00020F0952311F00C94110B0C94170B11247E
:1016F0000C945C0B0E94390B70F3959FC1F3950F0E
:1017000050E0551F629FF001729FBB27F00DB11D85
:10171000639FAA27F00DB11DAA1F649F6627B00D15
:10172000A11D661F829F2227B00DA11D621F739FFE
:10173000B00DA11D621F839FA00D611D221F749F0C
:101740003327A00D611D231F849F600D211D822F53
:10175000762F6A2F11249F5750409AF0F1F088237A
:101760004AF0EE0FFF1FBB1F661F771F881F9150A7
:101770005040A9F79E3F510580F00C94110B0C943A
:101780005C0B5F3FE4F3983ED4F3869577956795BD
:10179000B795F795E7959F5FC1F7FE2B880F911DD1
:1017A0009695879597F90895A0E1B0E0EAEDFBE002
:1017B0000C94980F7C011B016A01FC0117821682B0
:1017C000838181FF44C39E012F5F3F4F3901F701A1
:1017D0009381F10193FD859193FF81911F018823EE
:1017E00009F431C3853239F493FD859193FF8191DA
:1017F0001F01853239F4B70190E00E94E7105601CD
:101800006501E5CF10E0512C912CFFE1F915D8F0DE
:101810008B3279F038F4803279F08332A1F4F92DEB
:10182000F0612EC08D3261F0803369F4292D216082
:101830002DC0392D3260932E892D8460982E2AC0B8
:10184000E92DE86015C097FC2DC020ED280F2A3047
:1018500088F496FE06C03AE0139F200D1124122F43
:1018600019C08AE0589E200D1124522EE92DE06205
:101870009E2E10C08E3231F496FCE5C2F92DF06434
:101880009F2E08C08C3621F4292D2068922E02C08C
:10189000883641F4F10193FD859193FF81911F01F9
:1018A0008111B3CF9BEB980F933020F4992D906169
:1018B000805E07C09BE9980F933008F066C1992DB0
:1018C0009F7E96FF16E09F73992E853619F49064DB
:1018D000992E08C0863621F4392F3068932E02C025
:1018E0001111115097FE07C01C3350F44424439447
:1018F000410E27E00BC0183038F027E017E005C094
:1019000027E09CE3492E02C0212F412C560184E0A0
:10191000A80EB11CF6016081718182819381042D32
:10192000A3010E94F10F6C01F981FC87F0FF02C056
:10193000F3FF06C091FC06C092FE06C000E205C09F
:101940000DE203C00BE201C000E08C858C7019F041
:1019500001115AC29BC297FE10C04C0CFC85F4FFCB
:1019600004C08A81813309F44A94141474F528E080
:10197000241578F588E0482E2CC096FC2AC0812FCB
:1019800090E08C159D059CF03CEFC3163FEFD3060D
:1019900074F0892D8068982E0AC0E2E0F0E0EC0F28
:1019A000FD1FE10FF11D8081803319F411501111D9
:1019B000F4CF97FE0EC044244394410E812F90E053
:1019C000C816D9062CF41C1904C04424439401C041
:1019D00010E097FE06C01C141D0434F4C6010196E5
:1019E00005C085E090E002C081E090E00111019621
:1019F000112331F0212F30E02F5F3F4F820F931FD3
:101A0000252D30E08217930714F4581A01C0512C89
:101A1000892D897049F4552039F0B70180E290E0B2
:101A20000E94E7105A94F7CF002329F0B701802FC6
:101A300090E00E94E71093FC09C0552039F0B701EF
:101A400080E390E00E94E7105A94F7CF97FE4CC0D5
:101A50004601D7FE02C0812C912CC6018819990934
:101A6000F301E80FF91FFE87ED879601241931096C
:101A7000388B2F87012F10E01195019511093FEF49
:101A80008316930629F4B7018EE290E00E94E710D6
:101A9000C814D9044CF08F8598898815990524F4C9
:101AA000ED85FE85818101C080E3F1E08F1A910808
:101AB0002D853E852F5F3F4F3E872D8780169106EF
:101AC0002CF0B70190E00E94E710D9CFC814D904D8
:101AD00041F49A81963320F4953319F43C8534FF10
:101AE00081E3B70190E04EC08A81813319F09C8573
:101AF0009F7E9C87B70190E00E94E710111105C0FE
:101B000094FC18C085E690E017C0B7018EE290E023
:101B10000E94E7101E5F82E001E0080FF301E80F6A
:101B2000F11D8081B70190E00E94E710802F011322
:101B3000F3CFE6CF85E490E0B7010E94E710D7FC31
:101B400006C0C114D10441F4EC85E4FF05C0D19472
:101B5000C194D1088DE201C08BE2B70190E00E94F0
:101B6000E71080E32AE0C216D1042CF08F5FFAE080
:101B7000CF1AD108F7CFB70190E00E94E710B70164
:101B8000C601C0960E94E71054C1833631F08337F6
:101B900079F0833509F056C020C0560132E0A30E1B
:101BA000B11CF6018081898301E010E0630112C05D
:101BB0005601F2E0AF0EB11CF601C080D18096FE56
:101BC00003C0612F70E002C06FEF7FEFC6010E947B
:101BD000D4108C01F92DFF7714C0560122E0A20E1B
:101BE000B11CF601C080D18096FE03C0612F70E069
:101BF00002C06FEF7FEFC6010E94C9108C01F92D62
:101C0000F0689F2EF3FD1AC0852D90E00817190784
:101C1000A8F4B70180E290E00E94E7105A94F4CF54
:101C2000F60197FC859197FE81916F01B70190E0D5
:101C30000E94E71051105A94015011090115110525
:101C400079F7F7C0843611F0893661F5560197FEB1
:101C500009C024E0A20EB11CF6016081718182816D
:101C600093810AC0F2E0AF0EB11CF6016081718170
:101C7000072E000C880B990BF92DFF769F2E97FFEE
:101C800009C090958095709561957F4F8F4F9F4FBC
:101C9000F0689F2E2AE030E0A3010E946911C82E4F
:101CA000C6183FC0092D853721F40F7E2AE030E0A9
:101CB0001DC0097F8F3691F018F4883559F0C3C0E4
:101CC000803719F0883711F0BEC0006104FF09C0E9
:101CD000046007C094FE08C0066006C028E030E03B
:101CE00005C020E130E002C020E132E0560107FFEC
:101CF00009C084E0A80EB11CF60160817181828167
:101D0000938108C0F2E0AF0EB11CF60160817181D1
:101D100080E090E0A3010E946911C82EC6180F77D9
:101D2000902E96FE0BC0092D0E7FC11650F494FE26
:101D30000AC092FC08C0092D0E7E05C0DC2C092DBE
:101D400003C0DC2C01C0D12E04FF0DC0FE01EC0D40
:101D5000F11D8081803311F4097E09C002FF06C0A5
:101D6000D394D39404C0802F867809F0D39403FDD4
:101D700011C000FF06C01C2DD51480F4150D1D19CF
:101D80000DC0D51458F4B70180E290E00E94E7102E
:101D9000D394F7CFD51410F45D1801C0512C04FF73
:101DA00010C0B70180E390E00E94E71002FF17C067
:101DB00001FD03C088E790E002C088E590E0B7012C
:101DC0000CC0802F867859F001FF02C08BE201C061
:101DD00080E207FD8DE2B70190E00E94E710C11696
:101DE00038F4B70180E390E00E94E7101150F7CF7C
:101DF000CA94F301EC0DF11D8081B70190E00E94BF
:101E0000E710C110F5CF15C0F4E0F51560F584E0DA
:101E1000581A93FE1FC0011127C02C8523FF2AC02A
:101E200000E011E0392D3071932EF8018491811179
:101E300024C0552009F4E4CCB70180E290E00E9470
:101E4000E7105A94F6CFF7018681978126C08FEF6D
:101E50009FEF23C0B70180E290E00E94E7105A9400
:101E60005110F8CFD8CF512CB701802F90E00E94AD
:101E7000E710D3CF04E011E0D5CF91108052B70125
:101E800090E00E94E7100F5F1F4FCFCF23E0251592
:101E900010F483E0BDCF512CC0CF6096E2E10C94EA
:101EA000B40FA1E21A2EAA1BBB1BFD010DC0AA1F75
:101EB000BB1FEE1FFF1FA217B307E407F50720F0B3
:101EC000A21BB30BE40BF50B661F771F881F991F2E
:101ED0001A9469F760957095809590959B01AC0177
:101EE000BD01CF010895052E97FB1EF400940E94BA
:101EF0008A0F57FD07D00E94510F07FC03D04EF404
:101F00000C948A0F50954095309521953F4F4F4F37
:101F10005F4F089590958095709561957F4F8F4F95
:101F20009F4F0895EE0FFF1F0590F491E02D099447
:101F30002F923F924F925F926F927F928F929F92D9
:101F4000AF92BF92CF92DF92EF92FF920F931F93C7
:101F5000CF93DF93CDB7DEB7CA1BDB0B0FB6F89478
:101F6000DEBF0FBECDBF09942A88398848885F84B8
:101F70006E847D848C849B84AA84B984C884DF8029
:101F8000EE80FD800C811B81AA81B981CE0FD11D0D
:101F90000FB6F894DEBF0FBECDBFED0108956627E2
:101FA00077270C94C711FC0188279927E894219181
:101FB0002032E9F3293010F02E30C8F32B3241F0F3
:101FC0002D3239F4689404C00E94DF10820F911DF5
:101FD000219120532A30C0F31EF4909581959F4F94
:101FE0000895283008F027E03327DA01990F311DD2
:101FF00087FD916000966105710539F432602E5FAE
:102000003D9330E32A95E1F708959F3F30F0803803
:102010007105610509F03C5F3C5F3D93913008F02C
:102020008068911DDF93CF931F930F93FF92EF92E0
:10203000192F987F9695E92F96959695E90FFF278A
:10204000EE59FE4F99273327EE24FF24A701E7011D
:1020500005900894079428F4360FE71EF81E491FD0
:10206000511D660F771F881F991F0694A1F70590D1
:10207000079428F4E70EF81E491F561FC11D770F5D
:10208000881F991F661F0694A1F70590079428F4EE
:10209000F80E491F561FC71FD11D880F991F661FB5
:1020A000771F0694A1F70590079420F4490F561F57
:1020B000C71FD81F990F661F771F881F0694A9F79F
:1020C00084911095177041F0D695C795579547950F
:1020D000F794E7941A95C1F7E8E0F1E06894159059
:1020E000159135916591959105907FE27395E11871
:1020F000F10A430B560BC90BD009C0F7E10CF11ED6
:10210000431F561FC91FD01D7EF4703311F48A95EA
:10211000E6CFE894015030F0080F0AF400270217C8
:1021200008F4202F2395022F7A3328F079E37D934A
:102130002A95E9F710C07D932A9589F6069497951C
:102140006795379517951794E118F10A430B560BCD
:10215000C90BD00998F023957E9173957A3308F0D6
:1021600070E37C932013B8F77E9170617D9330F01B
:10217000839571E37D9370E32A95E1F71124EF9045
:10218000FF900F911F91CF91DF91992787FD909537
:102190000895FC010590615070400110D8F78095BA
:1021A00090958E0F9F1F0895FC0161507040019023
:1021B0000110D8F7809590958E0F9F1F08957AE0B3
:1021C000979F902D879F802D910D112408950F9337
:1021D0001F93CF93DF93FB01238121FD03C08FEF7A
:1021E0009FEF2CC022FF16C0468157812481358184
:1021F0004217530744F4A081B1819D012F5F3F4FE7
:10220000318320838C93268137812F5F3F4F378323
:10221000268314C08B01EC01FB010084F185E02DC5
:102220000995892BE1F6D80116968D919C91179707
:10223000019617969C938E931697CE01DF91CF91BE
:102240001F910F910895A0E0B0E0E9E2F1E10C9454
:10225000A80FAE014B5F5F4FFA0161917191AF0121
:1022600080911502909116020E94D40BE2E00C942A
:10227000C40F0F931F93CF93DF93E0911502F0915A
:102280001602238121FF1BC08C01D0E0C0E0F801C1
:1022900081918F016091150270911602DB011896F1
:1022A000ED91FC911997882331F00995892B79F3E9
:1022B000DFEFCFEFECCF8AE00995892B19F08FEF94
:1022C0009FEF02C08D2F9C2FDF91CF911F910F9117
:1022D0000895FA01AA27283051F1203181F1E894BC
:1022E0006F936E7F6E5F7F4F8F4F9F4FAF4FB1E009
:1022F0003ED0B4E03CD0670F781F891F9A1FA11D04
:10230000680F791F8A1F911DA11D6A0F711D811D04
:10231000911DA11D20D009F468943F912AE0269FC9
:1023200011243019305D3193DEF6CF010895462F28
:102330004770405D4193B3E00FD0C9F7F6CF462F09
:102340004F70405D4A3318F0495D31FD4052419372
:1023500002D0A9F7EACFB4E0A6959795879577952F
:102360006795BA95C9F700976105710508959B01B6
:10237000AC010A2E06945795479537952795BA953F
:10238000C9F7620F731F841F951FA01D0895A0E059
:10239000B0E0EDECF1E10C949E0FEC016B016115E6
:1023A000710519F0FB01918380837E01FFEFEF1A25
:1023B000FF0A0881802F90E00E941513892B11F0ED
:1023C000E701F3CF0D3239F47E0182E0E80EF11C13
:1023D000098111E008C00B3229F47E0192E0E90E78
:1023E000F11C098110E0E701219743E050E06AE029
:1023F00072E0CE010E941E13892BC1F4239645E0A2
:1024000050E065E072E0CE010E941E13892B09F4B2
:102410002596C114D10419F0F601D183C08311119E
:10242000F6C060E070E080E89FE7FAC043E050E06B
:1024300062E072E0CE010E941E13892B59F4C11490
:10244000D10409F4E9C0F2E0EF0EF11CF601F182CB
:10245000E082E2C020E030E0A901C0E0D0E0F70176
:1024600080EDA82EA00E89E08A1530F1912F9260A0
:10247000B92E812F887012FF04C0811124C02196CB
:1024800022C081112197A5E0B0E00E943913DC0140
:10249000CB01880F991FAA1FBB1F9C01AD012A0DFC
:1024A000311D411D511D283989E93807480789E147
:1024B000580748F0166006C09EEFA9120AC013FD27
:1024C00040C01860B12E8FEFE81AF80A00811B2D6A
:1024D000C6CF802F8F7D8534A1F580818D3211F498
:1024E000106106C08B3221F0319661E070E004C0CB
:1024F0008181329662E070E080538A3018F0E61BEA
:10250000F70B1FC060E070E060389CE079075CF476
:10251000DB01AA0FBB1FAA0FBB1F6A0F7B1F660F31
:10252000771F680F711D3196DF0111978C918053D1
:102530008A3050F314FF03C0719561957109C60F7D
:10254000D71F11FF08C0C114D10429F0CF01019792
:10255000F60191838083CA01B9010E94B00A212F3C
:102560002370233019F04B015C0106C04B015C0164
:10257000B7FAB094B7F8B09420E030E0A901C501F3
:10258000B4010E940A0A882309F43EC0D7FF06C09E
:10259000D195C195D10901E212E002C009E312E030
:1025A0006801F8E1CF1AD10890E2E92EF12CCE159E
:1025B000DF0574F0F8012591359145915491C501DD
:1025C000B4010E94670B4B015C01CE19DF09EFCF0C
:1025D00004501109F594E7940C151D0541F78A2D57
:1025E000880F8B2D881F8F3F49F020E030E0A90134
:1025F000C501B4010E940A0A811106C082E290E07E
:1026000090931A0280931902C501B40109C060E0D9
:1026100070E080E89FEF04C060E070E080EC9FE72E
:10262000CDB7DEB7ECE00C94BA0F91110C943613D1
:10263000803219F089508550C8F70895FB01DC01FC
:102640004150504088F08D9181341CF08B350CF452
:10265000805E659161341CF06B350CF4605E861B06
:10266000611171F3990B0895881BFCCF9927882776
:1026700008950E944413A59F900DB49F900DA49FB0
:10268000800D911D11240895A29FB001B39FC00138
:10269000A39F700D811D1124911DB29F700D811D8E
:0A26A0001124911D0895F894FFCF56
:1026AA000AD7233CA69BC43B95BF5635E3A51B3CE2
:1026BA00000070410080BB4400002041410000003E
:1026CA0003000000003E014801000053616C696488
:1026DA0061204F43314120696E76616C6964610DF6
:1026EA0000503A2025662C20443A2025660A004CE0
:1026FA00617A6F204365727261646F0056656C6F10
:10270A0063696461643A2025662072706D0A004329
:10271A006F727269656E74653A202566410A000017
:00000001FF
